:020000002528B1
:100006001228063083120313880024285B308800E8
:1000160024284F30880024283F3088002428831263
:1000260003132208013A031904282208023A031985
:1000360009282208033A03190C282208003A031952
:040046000F28080077
:10004A008316031307148714071506108610061162
:10005A0086110612081088100811881108128812D1
:10006A0008138813831206108610061186110612C9
:10007A008801871C4D2807194D2887194D28061411
:10008A0086100611861506120130A2000320722876
:10009A00871C5C28071D5C2887195C2806108614B3
:1000AA000611861506120230A20003207228871C48
:1000BA006B28071D6B28871D6B28061086100615EE
:1000CA00861106120330A200032072280614861035
:0E00DA00061186150616A20103203E28732883
:02400E004A2F37
:00000001FF
